:100000000C94CD040C94B30D0C94EA040C94DA0D0A
:100010000C94EA040C94FE0D0C94EA040C94EA048B
:100020000C94EA040C946B0D0C94EA040C94EA040E
:100030000C94EA040C94EA040C94EA040C94EA0488
:100040000C94EA040C94220E0C94EA040C94EA0436
:100050000C94EA040C948F0D0C94EA040C94EA04BA
:100060000C94EA040C94EA04DC0CDE0CE10CEB0CBE
:10007000F90C0B0D0E0D110D140DC40FFD0F80109A
:10008000C3100A114E1119137F151F1687158915F4
:100090009015AD15DB15E215E51500E0FF1F00E03A
:1000A000FF1F00E0FF1FABAA711CABAA711C0080F0
:1000B000991900809919008099192FBA45172FBAFC
:1000C000451700405515004055156227B1136227AA
:1000D000B11349124912491249120000111100F0DE
:1000E000FF0F00F0FF0F00000F0F55D5380E55D54C
:1000F000380EE535790D00C0CC0CDBB6300CDBB624
:10010000300C17DDA20B0B59210B00A0AA0A666662
:100110003D0AB193D809E4387B0925892409008078
:1001200088084208420800F8FF07BAE8C107B76D1F
:100130005007AB6A1C07F39ABC0676629006256AE4
:100140003E06DC11F4058C6ED10586AC900500509E
:10015000550533B31E05D949EC04729CBD04A2BCFD
:100160007D0441C356042258320400FCFF0363227D
:10017000D20359C8B50355358E03CDCC69033B3145
:100180004803F71229030000030346B7E802435669
:10019000C80200A8AA029A598F02EC24760239CE2E
:1001A0005E02ACF44302D2203002112C19020C067C
:1001B00004022F7AF0012DE4DA01AB1AC7010CD545
:1001C000B7019E18A4017B899401F4C78301A35B46
:1001D0007401611D6601CAEB58011FFC4A011E989B
:1001E0003C015FD03001259124011F441901FDB06D
:1001F0000D0118080301B92EF900C82DEF0087F290
:10020000E50015A8DC005E16D4005C86CB007AA061
:10021000C30085C7BB008D0AB40063EAAC001E555D
:10022000A600DB739F00811E9900094593003E3DA7
:100230008D00E8AE8700CC498200514E7D006A3FB8
:100240007800FF94730069E36E009C8F6A001B3D89
:100250006600DD4062004B6E5E00A6A45A002908CD
:1002600057002F975300005050009A194D00040D6D
:100270004A004514470000444400C1994100B103BD
:100280003F0031833C0031193A0044C63700E09505
:100290003500BA7033004F6C31006A742F00DF9262
:1002A0002D000EC72B005C092A000161280032C70F
:1002B00026005D3C2500BBC52300F55822005DFBF0
:1002C0002000BBAC1F00BF6C1E00B2371D00FE102B
:1002D0001C006CF21A00F9E1190024DA1800D3DFCF
:1002E00017001FEC160087031600AB251500EF4E14
:1002F000140025811300C9BA120042FD1100F9450E
:1003000011005597100002EF0F001B4D0F00A6B112
:100310000E009C1C0E00E68D0D0011040D007D806A
:100320000C0044010C009D870B00E7120B00A6A2F5
:100330000A0075360A0025CF0900866B0900FB0B01
:1003400009002DB008001B5808007A03080048B2C5
:10035000070011640700111907000ED10600058C73
:1003600006009C490600D60906008ECC0500C39104
:1003700005003659050004230500F2EE0400E9BC2F
:100380000400D38C0400B05E040058320400CB0794
:100390000400E7DE03009DB70300ED910300BB6D91
:1003A0000300F04A03008B29030078090300ACEA3C
:1003B000020016CD0200AEB00200659502002E7B51
:1003C000020001620200D9490200A0320200571C5B
:1003D0000200EE06020061F20100A1DE0100ABCBDB
:1003E000010074B90100F6A70100299701000787F1
:1003F000010089770100A86801005E5A0100A54C40
:100400000100773F0100CF320100A7260100FB1A4F
:100410000100C40F010000050100A8FA0000BAF0B5
:10042000000030E7000007DE00003BD50000C8CC2C
:100430000000ABC40000E0BC000064B5000035AEB5
:1004400000004EA70000ADA000004F9A00003294BB
:100450000000538E0000AF88000045830000117E2D
:1004600000001379000047740000AB6F00003F6B81
:100470000000FF660000EA620000FF5E00003B5BD8
:1004800000009E57000025540000D05000009C4DF5
:100490000000894A0000954700007A1500004416C4
:1004A000000015170000EF170000D0180000BA195F
:1004B0000000AC1A0000A71B0000AB1C0000B91D17
:1004C0000000D11E0000F31F000020210000582270
:1004D00000009B230000EB24000046260000AF270D
:1004E000000024290000A82A0000392C0000DA2D81
:1004F0000000892F00004931000019330000FA3450
:100500000000ED360000F23800000A3B0000363DE6
:100510000000763F0000CC41000037440000BA469E
:10052000000054490000064C0000D24E0000B851B3
:100530000000B9540000D7570000125B00006C5E49
:100540000000E56100007E6500003A690000196D59
:1005500000001C71000045750000957900000E7EBA
:100560000000B18200007F8700007B8C0000A69114
:100570000000019700008F9C000051A2000049A8D4
:1005800000007AAE0000E4B400008CBB000071C231
:10059000000098C9000002D10000B2D80000ABE012
:1005A0000000EEE800007FF1000061FA0000960311
:1005B0000100220D0100081701004C210100EF2B62
:1005C0000100F836010067420100434E01008E5AD7
:1005D00001004D67010084740100388201006C90B5
:1005E0000100269F01006BAE010040BE0100A9CEB4
:1005F0000100ADDF010052F101009C0302009316DF
:1006000002003C2A02009F3E0200C1530200AA6978
:10061000020062800200F09702005BB00200ACC9E9
:100620000200ECE3020022FF0200591B03009A388B
:100630000300EE5603005F760300F9960300C5B889
:100640000300D0DB030025000400D0250400DD4CAE
:1006500004005A750400559F0400DACA0400FAF732
:100660000400C2260500435705008C890500AFBD74
:100670000500BDF30500C82B0600E26506001FA2B9
:10068000060094E00600552107007764070012AACF
:1006900007003BF207000D3D08009E8A08000ADBB8
:1006A00008006C2E0900DE8409007EDE09006A3B2A
:1006B0000A00C19B0A00A4FF0A0032670B0090D217
:1006C0000B00E0410C0049B50C00F02C0D00FEA819
:1006D0000D009C290E00F4AE0E0035390F008BC8BA
:1006E0000F00265D100039F71000F7961100943CBA
:1006F000120049E812004F9A1300E15214003C1214
:100700001500A1D8150053A61600957B1700AF5809
:100710001800EA3D1900942B1A00FC211B007421DB
:100720001C00512A1D00EC3C1E00A0591F00CD806A
:100730002000D5B221001FF0220014392400238E9E
:100740002500BCEF2600575E28006EDA2900806481
:100750002B000FFD2C00A6A42E00D15B300023231C
:10076000320034FB3300A1E435000FE0370026EE01
:100770003900970F3C0018453E00658F400042EF5E
:1007800042007B654500E1F2470050984A00A856B8
:100790004D00D62E5000CC215300863056000A5C06
:1007A000590067A55C00B60D600019966300C03F54
:1007B0006700E40B6B00C9FB6E00BF107300244C94
:1007C000770062AF7B00F03B800052F384001DD7BE
:1007D0008900F2E88E00832A9400909D9900ED43F1
:1007E0009F007C1FA5003232AB00177EB10044058C
:1007F000B800E8C9BE0046CEC500B514CD00A49F20
:10080000D4009871DC002D8DE40019F5EC002AACC1
:10081000F50049B5FE007C130801E3C91101BCDBFA
:100820001B01664C26015B1F31013B583C01C4FA99
:100830004701D90A5401828C6001EC836D016CF58B
:100840007A0180E58801CE5897012B54A60198DCE7
:10085000B50145F7C50193A9D60116F9E70195EB56
:10086000F90110870C02BDD11F020ED23302B18EE6
:100870004802940E5E02E458740214758B02DC6A1E
:10088000A3023C42BC028003D60244B7F002716668
:100890000C03481A29035DDC4603808386898C8F0C
:1008A0009295989B9EA2A5A7AAADB0B3B6B9BCBEBF
:1008B000C1C4C6C9CBCED0D3D5D7DADCDEE0E2E402
:1008C000E6E8EAEBEDEEF0F1F3F4F5F6F8F9FAFA12
:1008D000FBFCFDFDFEFEFEFFFFFFFFFFFFFFFEFE38
:1008E000FEFDFDFCFBFAFAF9F8F6F5F4F3F1F0EE93
:1008F000EDEBEAE8E6E4E2E0DEDCDAD7D5D3D0CE11
:10090000CBC9C6C4C1BEBCB9B6B3B0ADAAA7A5A277
:100910009E9B9895928F8C898683807C7976737064
:100920006D6A6764615D5A5855524F4C4946434160
:100930003E3B393634312F2C2A282523211F1D1BFD
:100940001917151412110F0E0C0B0A0907060505CD
:100950000403020201010100000000000000010187
:10096000010202030405050607090A0B0C0E0F110C
:1009700012141517191B1D1F212325282A2C2F316E
:100980003436393B3E414346494C4F5255585A5DE7
:100990006164676A6D707376797C11241FBECFEF36
:1009A000D8E0DEBFCDBF11E0A0E0B1E0ECECFFE2AB
:1009B00002C005900D92A631B107D9F722E0A6E159
:1009C000B1E001C01D92AE35B207E1F70E94CC0E36
:1009D0000C94E4170C9400001092180181E08093AD
:1009E000170110921601E9E1F1E0118210821382E1
:1009F000128215821482178216821186108613863F
:100A0000128680E480937C0010927B00EAE7F0E09D
:100A10008FE880838081806480830895409178008E
:100A20005091790080911701882319F010921701D5
:100A300060C08091180121E030E001C0220F8A954A
:100A4000EAF7CA01E6E0880F991FEA95E1F7F4E0BA
:100A500056954795FA95E1F7842B952B4091160111
:100A60004223E0911801F0E0EE0FFF1FE75EFE4F1A
:100A7000411108C09183808380911601282B209317
:100A8000160124C0608171812091180130E0E0914D
:100A90001801F0E0EE0FFF1FE75EFE4F408151812D
:100AA000A0E0B0E0861B970BA109B10963E0B59502
:100AB000A795979587956A95D1F7840F951F220F73
:100AC000331FF901E75EFE4F918380838091180107
:100AD0008F5F8093180180911801863010F010927A
:100AE000180180911801806480937C0081E08093DC
:100AF000170180917A00806480937A0008952FB75F
:100B0000F894FC0180E090E0DC01AA0FBB1FA75E17
:100B1000BE4F4D915C914193519301968630910562
:100B200099F72FBF08951092300110923101109261
:100B300032011092330110922C0110922D0110926B
:100B40002E0110922F01109228011092290110926B
:100B50002A0110922B011092270110922601109267
:100B6000250152985A9AE9E6F0E080818C7F8260F4
:100B7000808381E08CBBE89A089580913001909148
:100B80003101A0913201B09133010196A11DB11D37
:100B90008093300190933101A0933201B0933301DF
:100BA00008950F931F938091300190913101A0918E
:100BB0003201B09133012091250121110CC08093A5
:100BC0002C0190932D01A0932E01B0932F0181E071
:100BD000809325012AC040912C0150912D016091F4
:100BE0002E0170912F018C019D01041B150B260B0A
:100BF000370B80932C0190932D01A0932E01B0937D
:100C00002F01003111052105310570F000932801F5
:100C10001093290120932A0130932B0181E08093C6
:100C200027018093260101C080E01F910F91089554
:100C3000CF92DF92EF92FF92CF93DF93EC017FB7D9
:100C4000F8948091300190913101A0913201B091DE
:100C50003301C0902C01D0902D01E0902E01F09036
:100C60002F01209128013091290140912A015091B2
:100C70002B01609127017FBF662339F121153105D2
:100C80004105510511F18C199D09AE09BF09690192
:100C90007A0162E0CC0CDD1CEE1CFF1C6A95D1F7DA
:100CA000C816D906EA06FB0680F06FEF7FEFCB018E
:100CB0000E94D216DA01C9010196A11DB11D8883D7
:100CC0009983AA83BB8381E001C080E0DF91CF914B
:100CD000FF90EF90DF90CF9008958FB7F8949091A8
:100CE0002601109226018FBF81E0911101C080E0A2
:100CF00008958F718C3141F48091440190913901B4
:100D0000992389F0886008958D3161F08E3141F02A
:100D10008F3141F0E82FF0E0EB5BFE4F80810895CA
:100D200081E0089580E008954FB7F89480E090E066
:100D3000FC01EB5BFE4F1082019680329105C1F7FA
:100D400025E0209345011092470191E090934801DE
:100D500080E88093490180934A0130E630934B014B
:100D600030E730934C013FEF30934D0130934E010B
:100D700080934F01809350011092510120935201B2
:100D8000109253019093540192E09093550196E094
:100D90009093560180935F014FBF089510923B01DD
:100DA00010923A01109239011092380110923701D5
:100DB00010923601109235011092340110924401C4
:100DC0000E94940680EC8CBD1DBC1EBC08958093CF
:100DD000380110923701882319F0249A1EBC089517
:100DE000249808958EB5909138019923D9F1909166
:100DF000370191110CC08093360191E09093370137
:100E000087FF30C08F770E9479068EBD089530919C
:100E10003701313039F59091360197FD20C020918E
:100E200036012F7790913B019F5F937040913A017B
:100E3000941303C03093390112C0E0913B01F0E0FC
:100E4000EE0FFF1FE45CFE4F2083E0913B01F0E0DA
:100E5000EE0FFF1FE45CFE4F818390933B0182E025
:100E6000809337011EBC08958F7194EE980F9330D4
:100E7000B0F08F3161F4653A21F481E0809335015F
:100E800008956A3561F481E08093340108959FB735
:100E9000F894E82FF0E0EB5BFE4F60839FBF08956E
:100EA000CF93DF939FB7F89420913A0180913B0153
:100EB000281309C080E09FBF8823E9F06D2F8C2F95
:100EC0000E943407EFCFE0913A01F0E0EE0FFF1FF0
:100ED000E45CFE4FC081E0913A01F0E0EE0FFF1FAD
:100EE000E45CFE4FD18180913A018F5F83708093E3
:100EF0003A0181E0E0CFDF91CF9108952FB7F894C8
:100F0000FC0180E090E0DC01AB5BBE4F3C91319393
:100F100001968C319105B9F72FBF08952FB7F8943A
:100F2000FC0180E090E03191DC01AB5BBE4F3C9373
:100F300001968C319105B9F72FBF08958FB7F894BA
:100F400090913501109235018FBF81E0911101C060
:100F500080E008958FB7F894909134011092340195
:100F60008FBF81E0911101C080E00895809344011A
:100F70000895CF93DF93CDB7DEB7A1970FB6F8945E
:100F8000DEBF0FBECDBF41E250E060E070E0CE01B9
:100F900001960E94B21789819A8184359D44E1F4BB
:100FA0008B818130C9F48C818C31B1F499A1FE011F
:100FB00031969E012F5D3F4F8AE5880F811D41913B
:100FC00084272E173F07C9F7981306C0CE01059650
:100FD0000E948E0781E001C080E0A1960FB6F894D0
:100FE000DEBF0FBECDBFDF91CF910895CF93DF93CA
:100FF000CDB7DEB7A1970FB6F894DEBF0FBECDBF59
:1010000084E59DE49A83898381E08B838CE18C83E2
:10101000CE0105960E947E07FE013196AE014F5D1E
:101020005F4F2AE5CF01220F211D319123274E1753
:101030005F07C9F729A341E250E060E070E00E9439
:10104000C217A1960FB6F894DEBF0FBECDBFDF91D9
:10105000CF9108950F931F9340916A0150916B01B6
:1010600060916C0170916D01DB01CA012DE0880F68
:10107000991FAA1FBB1F2A95D1F7482759276A270E
:101080007B27DB01CA0131E1B695A7959795879536
:101090003A95D1F7482759276A277B27DB01CA01F0
:1010A000E5E0880F991FAA1FBB1FEA95D1F78A01B7
:1010B0009B01082719272A273B27C901B80100935C
:1010C0006A0110936B0120936C0130936D011F91A5
:1010D0000F910895CF93DF932FE0829FC0011124D9
:1010E000EC01C258DE4F88819981AA81BB81480FEB
:1010F000591F6A1F7B1F488359836A837B83481764
:1011000059076A077B0750F48E819F819D838C83EA
:101110000E942A089F838E8381E001C080E0DF91D6
:10112000CF910895EF92FF920F931F93E82EF12C29
:101130009FE0899FF0011124E258FE4F84858130A1
:1011400059F580859185A285B385480F591F6A1F7F
:101150007B1F481759076A077B0758F0411551054F
:101160008FEF6807780728F4408751876287738775
:101170002CC08FE08E9DF0018F9DF00D1124E25860
:10118000FE4F80E090E0AFEFBFEF80879187A287AE
:10119000B38782E0848719C08230B9F48085918555
:1011A000A285B385081719072A073B0730F0108678
:1011B000118612861386148608C0801B910BA20B21
:1011C000B30B80879187A287B3871F910F91FF9000
:1011D000EF900895FC0180919C0191E098278EE5A5
:1011E000989FD0011124A356BE4F2EE501900D9279
:1011F0002A95E1F78FB7F89490939C018FBF0895DB
:10120000EF92FF920F931F93CF93DF93CDB7DEB78B
:10121000CE55D1090FB6F894DEBF0FBECDBF8DE11C
:101220009CE3ABE5BAE780936A0190936B01A093CE
:101230006C01B0936D0110929C018CEBEDE9F1E033
:10124000DF011D928A95E9F71092690110926801F9
:101250001092670110926601109265010EE711E08D
:10126000E12C80E8F82EF80110821182128213829C
:101270000E942A08D80115969C938E9314970E9479
:101280002A08F801978386831086118612861386B2
:101290001486F686E586015F1F4FB1E00C391B0707
:1012A00011F710926E0110926F011092700110925E
:1012B00071011092720110927301109274011092D8
:1012C00075011092760110927701109278011092B8
:1012D000790110927A0110927B0110927C01109298
:1012E0007D01FE0131968EE5DF011D928A95E9F7B9
:1012F00091E0988F9A8F9E8B2FEF3FEF38872F8347
:101300003B8B2A8B6D969FAF6D9782E06E968FAF69
:101310006E9786E06F968FAF6F97CF010E94EA08B5
:10132000C25ADF4F0FB6F894DEBF0FBECDBFDF91BC
:10133000CF911F910F91FF90EF90089590916901C7
:101340008370982B90936901089581E080936801E0
:1013500008952F923F924F925F926F927F928F9259
:101360009F92AF92BF92CF92DF92EF92FF920F9334
:101370001F93CF93DF93CDB7DEB7E0970FB6F89406
:10138000DEBF0FBECDBF0E94BD05809166018F5F9D
:101390008093660180916601803228F01092660188
:1013A00081E08093670130909C01E32CF12C8091C7
:1013B0006901109269018823E9F19EE59E9DF00183
:1013C0009F9DF00D1124E356FE4F96899430D9F479
:1013D00080FF0BC010928601109287011092880145
:1013E0001092890191E090938A0181FF23C01092AD
:1013F000950110929601109297011092980181E048
:101400008093990117C0918D9923A1F080FF08C0A6
:1014100010927E0110927F01109280011092810142
:1014200081FF08C010928D0110928E0110928F01E1
:10143000109290018091680181113CC08EE58E9DD3
:1014400090018F9D300D1124890103561E4F6801B4
:10145000F8018689843009F49EC0853009F4F1C012
:10146000823009F030C18BE0F801DE011196019065
:101470000D928A95E1F749815A816B817C8180E0E8
:101480000E946A08F801868C978CA12CB12C54011B
:10149000992488248E01095E1F4F6E01FFE1CF0E53
:1014A000D11C40907E0150907F016090800170902F
:1014B00081013FC0109268018EE58E9DF0018F9DE5
:1014C000F00D1124E356FE4F808D882309F4B6CF2A
:1014D00010927E0110927F01109280011092810182
:1014E00010928D0110928E0110928F011092900136
:1014F00010926E0110926F011092700110927101A2
:101500001092720110927301109274011092750181
:101510001092760110927701109278011092790161
:1015200010927A0110927B0110927C0110927D0141
:1015300085CFA3019201BE016F5F7F4F8EE791E0DF
:101540000E944E1549855A856F8178850E94331611
:10155000F801819391938F01480C591C6A1C7B1CE4
:10156000CE16DF0631F78F89988D90938C0180938A
:101570008B018EE58E9DF0018F9DF00D1124E356B9
:10158000FE4F4789DE015796FE0131969E012B5F83
:101590003F4FCF0162C2F80106A517A520A931A9C6
:1015A00046A157A160A571A580E00E949208F601AE
:1015B00002A913A924A935A942A553A564A575A517
:1015C00081E00E9492088090950190909601A090F1
:1015D0009701B09098014501AA24BB24F60166A9A1
:1015E00080918801909189010E945B168C01F6011F
:1015F00067A9C4010E945B16188F0F8B9A8F898F81
:10160000A0E0B0E0800F911FA11DB11DB695A79578
:10161000979587959C8F8B8F80918A0181110CC043
:1016200081E090E020919901211102C080E090E0DA
:1016300091958195910902C08FEF9FEF9E8F8D8FBD
:1016400098CFF801E85AFF4F208131818EE691E072
:101650008E01095E1F4F68011EE5319ED0011124E5
:10166000AB52BE4FFC0180809180A280B380B7FC5A
:1016700006C04D915D916D917C91139706C0509677
:101680004D915D916D917C915397480D591D6A1D47
:101690007B1DFC014193519361937193CF0101E054
:1016A00010E06217730710F000E010E0119501954B
:1016B0001109F601019311936F011496F1E08E3731
:1016C0009F0781F656CF9BE0F801DE011C96019042
:1016D0000D929A95E1F7F901E855FE4F9BE0DE0186
:1016E000119601900D929A95E1F74C845D846E8479
:1016F0007F8489809A80AB80BC808650823008F0DD
:101700006FC0A0919B01B0E0A058B10930E0F80192
:1017100025A19CE076946794579447949A95D1F7C5
:101720000E9428179B01AC01C301B2010E94A216BE
:10173000DC01CB012FE0B595A795979587952A9564
:10174000D1F7480E591E6A1E7B1E14141504160488
:10175000170424F0412C512C32014394BCE0440C7A
:10176000551C661C771CBA95D1F7A0918C01B0E08E
:10177000A058B1098EE58E9DF0018F9DF00D1124CA
:10178000E154FE4F30E021811CE0B694A794979479
:1017900087941A95D1F70E9428179B01AC01C501C7
:1017A000B4010E94A216DC01CB010FE0B595A7950C
:1017B000979587950A95D1F7880E991EAA1EBB1E8C
:1017C000181419041A041B0424F0812C912C5401C0
:1017D0008394FCE0880C991CAA1CBB1CFA95D1F7D9
:1017E000B301A20180E00E946A08B501A40181E072
:1017F0000E946A089EE59E9DF0019F9DF00D1124B8
:10180000E356FE4F9689933049F5882339F10091CC
:1018100084011091850100A0F1A1E02DA091930118
:10182000B09194014FEF5FEF60E070E09A01AB017F
:101830002E1B3F0B410951090E942F174B015C01E0
:101840009801DF010E941917DC01CB01880D991D59
:10185000AA1DBB1DB0939401A093930140907E01FB
:1018600050907F0160908001709081018EE58E9D87
:10187000F0018F9DF00D1124E356FE4F80908D01F5
:1018800090908E01A0908F01B0909001828D938DE9
:10189000A48DB58D880E991EAA1EBB1EA3019201B0
:1018A000BE01645F7F4F8EE791E00E944E156C0190
:1018B000A5019401BE016F5F7F4F8DE891E00E940A
:1018C0004E158C01D0928C01C0928B0190939B019C
:1018D00080939A014C895D896A897B89C6010E943F
:1018E000331698A38F8F49855A856F817885C801F3
:1018F0000E9433166C010F8D18A1C801A0E0B0E062
:10190000A60160E070E08C019D01040F151F261FE9
:10191000371F36952795179507950DA71EA78E019A
:10192000095E1F4F1AA309A32EE5329E80011124E0
:101930001CA30BA318AA1FA62D2D220F220B022FCA
:10194000220F110B1EA30DA328A1220F220B022F81
:10195000220F110B18A70FA395018401305C09A772
:101960001AA72BA73CA71201230110EC511A841BC4
:10197000950BA60BB70B4C015D0120E8920EA11C44
:10198000B11C3401EBA1FCA10FA518A9E00FF11FB8
:10199000E950FE4F80816AE00E94B216892F90E0E4
:1019A000FC013197E930F10520F4EC5CFF4F0C9419
:1019B00013178F8D98A13AC0C60138C08DA59EA57A
:1019C00035C0B7FC2EC08114910411E0A106B1040A
:1019D0005CF5C3012BC0A2019101BE01645F7F4F82
:1019E0008EE791E00E944E154C895D896A897B895A
:1019F0000FC029A53AA54BA55CA5BE016F5F7F4F1F
:101A00008DE891E00E944E1549855A856F81788551
:101A10000E9433160BC08FA198A508C08DA19EA16E
:101A200005C080E090E002C08FEF9FEFE9A1FAA12E
:101A300081939193FAA3E9A30FA518A90F5F1F4FF4
:101A400018AB0FA70430110509F09CCF92CD10827E
:101A5000129631962E173F0739F04423C1F31196A1
:101A60005C9111975083F4CF0E94920E80918A016D
:101A7000882311F082E001C080E0909199019111DA
:101A8000846080936501E0960FB6F894DEBF0FBEC8
:101A9000CDBFDF91CF911F910F91FF90EF90DF901D
:101AA000CF90BF90AF909F908F907F906F905F90FE
:101AB0004F903F902F9008958FB7F89490916701C1
:101AC000109267018FBF81E0911101C080E00895FD
:101AD0008091650108951F920F920FB60F92112405
:101AE0002F933F934F935F936F937F938F939F9326
:101AF000AF93BF93EF93FF930E94A909FF91EF91DA
:101B0000BF91AF919F918F917F916F915F914F9115
:101B10003F912F910F900FBE0F901F9018951F921D
:101B20000F920FB60F9211242F933F934F935F9311
:101B30006F937F938F939F93AF93BF93EF93FF9395
:101B40000E940E05FF91EF91BF91AF919F918F91F0
:101B50007F916F915F914F913F912F910F900FBEA9
:101B60000F901F9018951F920F920FB60F9211248D
:101B70002F933F934F935F936F937F938F939F9395
:101B8000AF93BF93EF93FF930E94D10581110E9401
:101B9000A509FF91EF91BF91AF919F918F917F9197
:101BA0006F915F914F913F912F910F900FBE0F90CA
:101BB0001F9018951F920F920FB60F9211242F931A
:101BC0003F934F935F936F937F938F939F93AF93C5
:101BD000BF93EF93FF930E94A10EFF91EF91BF91EE
:101BE000AF919F918F917F916F915F914F913F91B5
:101BF0002F910F900FBE0F901F9018951F920F926C
:101C00000FB60F9211242F933F934F935F936F93CF
:101C10007F938F939F93AF93BF93EF93FF930E9414
:101C2000BC0EFF91EF91BF91AF919F918F917F91EA
:101C30006F915F914F913F912F910F900FBE0F9039
:101C40001F9018951F920F920FB60F9211242F9389
:101C50003F934F935F936F937F938F939F93AF9334
:101C6000BF93EF93FF930E94F206FF91EF91BF9114
:101C7000AF919F918F917F916F915F914F913F9124
:101C80002F910F900FBE0F901F901895509851985C
:101C90005798589A599A5F9A549820985C9A289A1B
:101CA000219A539A559A569A83EA84BD92E095BD3B
:101CB0008FE787BD88BD21E8209380002AE020932C
:101CC00081002FE730E0309389002093880023E2E1
:101CD0002093B0009093B1008093B40081E0809392
:101CE000700084B1837C84B92A9A83B180935A02AC
:101CF00089B18093590295E090936B00E8E6F0E09B
:101D000080818160808380E180936D008081846028
:101D100080839BBB089589B18170499982604F99F6
:101D200084600895FC01808190E090938900809305
:101D3000880081818093B400828188BD838187BDC2
:101D40000895CF93DF93C3B1D0915A02DC27D0FF1F
:101D500005C0C0FD03C082E00E949E09D2FF07C0FB
:101D6000C2FB882780F991E089270E94E706C0938B
:101D70005A02DF91CF910895CF93C9B18091590252
:101D80008C2784FF05C0C4FD03C081E00E949E092A
:101D9000C0935902CF910895F8940E94460E0E9474
:101DA00093050E94CE060E94B9070E94EC040E948F
:101DB00000090E94460F0E944F0F78940E9450071E
:101DC0000E94AA07882321F00E9494060E944F0FC8
:101DD0000E949E0781110E94F6070E945C0D8823D5
:101DE00069F30E944F0FEACFEF92FF920F931F9378
:101DF000CF93DF93FC01E40FF11D408150E08C0193
:101E00000E5E1F4FFB014896D8013D918D01632F57
:101E10006F70621325C0B181CB2F60E0D62F7E0199
:101E2000A0E8EA1AF108A32FA295A695A770B0E042
:101E3000119634FF03C0F194E194F108AE9DB00116
:101E4000AF9D700DBE9D700D112477FF02C0695FBC
:101E50007F4F33E0759567953A95E1F7460F571F29
:101E600032960817190781F657FD06C04F3F5105F6
:101E700009F024F4842F03C080E001C08FEFDF91CC
:101E8000CF911F910F91FF90EF9008950E948B0EBC
:101E900080935D0280935C0210925B0208952F9202
:101EA0003F924F925F926F927F928F929F92AF92EA
:101EB000BF92CF92DF92EF92FF920F931F93CF9337
:101EC000DF93CDB7DEB7C95AD1090FB6F894DEBF9C
:101ED0000FBECDBFCE0185589F4F0E947F050E9447
:101EE0008B0E90915C02891308C090915B029F3F1A
:101EF00041F09F5F90935B0204C080935C0210925C
:101F00005B0290915B02953010F080935D0210911E
:101F10005D02C957DF4F188219821A821B82C75887
:101F2000D040CE0189579F4F0E941806382EFE01DF
:101F300031968EE5DF011D928A95E9F781E0888F61
:101F40008A8F2FEF3FEF38872F833B8B2A8B8E8B27
:101F500020E030E86B963FAF2EAF6B976D968FAF5A
:101F60006D9782E06E968FAF6E9786E06F968FAF1B
:101F70006F97812F90E08730910508F0A0C3FC0196
:101F8000E35CFF4F0C941317ED968FADED970E9415
:101F9000361569837A838B839C83EF962EAD3FAD94
:101FA000EF97AAE0B0E00E9419178B87C158DF4F66
:101FB00088819981CF57D0409E838D83CE57DF4F44
:101FC0008881C258D0400E9436156C877D878E87E5
:101FD0009F87CD57DF4F28813981C358D040AAE071
:101FE000B0E00E9419178E8BCB57DF4F8881998103
:101FF000C558D040998B888B0DC5C957DF4FC88015
:10200000D980EA80FB80C758D04081E08F8B398E21
:10201000311007C0ED968FADED970E9436156B011C
:102020007C01C982DA82EB82FC82EF962EAD3FAD55
:10203000EF97ABE0B0E00E941917AA27BB27FC017D
:10204000E050FF4F8080912CA12CB12CFC01E55F6A
:10205000FE4F4080512C612C712CC701B601A501A7
:1020600094010E94D21669017A019B01AC01C3015F
:10207000B2010E94A216A50194010E94D216490144
:102080005A01A7019601C301B2010E94A216DC0108
:10209000CB01880D991DAA1DBB1D8C879D87AE871E
:1020A000BF87C158DF4F28813981CF57D040AAE080
:1020B000B0E00E9419178B87CF57DF4F28813981F5
:1020C000C158D0400E9419178E8BCD57DF4F8881A1
:1020D0009981C358D040A0E0B0E0DC01992788275F
:1020E0008B8F9C8FAD8FBE8FCB57DF4F88819981AF
:1020F000C558D0409E838D83998B888B87E0DBC247
:10210000C957DF4F688179818A819B81C758D04048
:1021100022E02F8B398E311005C0ED968FADED97F3
:102120000E94361569837A838B839C83EF962EAD4C
:102130003FADEF97AAE0B0E00E9419178B87C15816
:10214000DF4F88819981CF57D0409E838D83CF57B1
:10215000DF4F88819981C158D0409695879598A383
:102160008F8FCD57DF4F88819981C358D040988792
:102170008F83CB57DF4F88819981C558D0409058C5
:102180009A87898747C483E08F8BED968FADED9753
:102190000E94361569837A838B839C83EF968EAD7C
:1021A0009FADEF978115B8E09B0710F029E001C0C3
:1021B00028E02B879E838D83C058DF4F8881C058CD
:1021C000D0400E9436156C877D878E879F87CF57BA
:1021D000DF4F88819981C158D0408115E8E09E0782
:1021E00010F029E001C028E02E8B998B888BCD5709
:1021F000DF4F88819981C358D0409AA389A3CB57D8
:10220000DF4F88819981C558D04098878F839B8BF9
:102210008A8B00C484E08F8B1A8EED968FADED977C
:102220000E9442156FA378A789A79AA7EF968FAD52
:10223000EF970E9442156FA778AB89AB9AABC15854
:10224000DF4F88819981CF57D04084E0989F812DBE
:10225000992711248FABCE57DF4F8881C258D040C9
:102260000E9442156BA77CA78DA79EA7CC57DF4F76
:102270008881C458D0400E9442156BAB7CAB8DABBB
:102280009EABCB57DF4F88819981C558D04084E001
:10229000989F812D9927112488AFBCC3C957DF4F60
:1022A000A880B980CA80DB80C758D040CD56DF4FA8
:1022B000A882B982CA82DB82C359D04085E08F8B65
:1022C000398E31100DC0ED968FADED970E94361509
:1022D000CD56DF4F688379838A839B83C359D0406F
:1022E00085E0A0968FAFA097EF962EAD3FADEF970C
:1022F000ABE0B0E00E941917A1968FAFA197C1582B
:10230000DF4F28813981CF57D0400E941917A296FC
:102310008FAFA297CF57DF4F28813981C158D04066
:102320000E941917A3968FAFA397CD57DF4F8881CF
:102330009981C358D0406B969FAF8EAF6B97CB57A8
:10234000DF4F88819981C558D0409695879596959D
:1023500087958E01015A1F4FC956DF4F1983088395
:10236000C759D0409E01275C3F4FC357DF4F398389
:102370002883CD58D040AE01475B5F4FC557DF4F34
:1023800059834883CB58D0409C0130585901C12C07
:10239000D12CE12CF12C8701C656DF4F2883CA5976
:1023A000D040C556DF4FB882CB59D040C456DF4F1E
:1023B000C882CC59D040C356DF4FD882CD59D040C7
:1023C000C256DF4FE882CE59D040C156DF4FF88267
:1023D000CF59D040C056DF4F0883C05AD040CF55A8
:1023E000DF4F1883C15AD04020E030E86901C81A95
:1023F000D90A760100E010E020E030E0A901CE55D6
:10240000DF4FC882C25AD040CD55DF4FF882C35A41
:10241000D040CC55DF4F0883C45AD040CB55DF4F56
:102420001883C55AD040CA55DF4F2883C65AD040BA
:10243000C955DF4F3883C75AD040C855DF4F48834E
:10244000C85AD040C755DF4F5883C95AD040C956E3
:10245000DF4FA881B981C759D0408D91C956DF4F50
:10246000B983A883C759D0406BE00E94B216892F68
:1024700090E0FC01E050FF4F8080912CA12CB12C0A
:10248000FC01E55FFE4FC080D12CE12CF12CCD5634
:10249000DF4F688179818A819B81C359D040A50132
:1024A00094010E94D21629013A019B01AC01C70197
:1024B000B6010E94A216A50194010E94D2164901FC
:1024C0005A01A3019201C701B6010E94A216860E0D
:1024D000971EA81EB91E9401A50160E070E080E07F
:1024E00090E00FE00E949917222EC756DF4F3883E5
:1024F000C959D0402A013B014C01C656DF4FA88084
:10250000CA59D040C556DF4FB880CB59D040C12CF6
:10251000D12CE12CF12C00E010E00E943C17C157B7
:10252000DF4F2883CF58D040C057DF4F3883C05982
:10253000D040CF56DF4F4883C159D040CE56DF4FF1
:102540005883C259D040C157DF4FA880B980CA8094
:10255000DB80CF58D040C357DF4FA881B981CD5819
:10256000D040AD92BD92CD92DC921397CE55DF4F05
:10257000A880C25AD040CD55DF4FB880C35AD04052
:10258000C12CD12C222DC756DF4F3881C959D040DC
:10259000A201B301C4010E943C17C901DA01C3576B
:1025A000DF4FE881F981CD58D040808B918BA28B91
:1025B000B38BC157DF4FA880B980CA80DB80CF586A
:1025C000D040AB28AC28AD2841F4C12CD12C7601E9
:1025D000C394C082D182E282F382892B8A2B8B2B17
:1025E00081F4A12CB12C6501A394C357DF4FA881BE
:1025F000B981CD58D0405096AD92BD92CD92DC922B
:102600005397C357DF4FE881F981CD58D0403496B6
:10261000C357DF4FF983E883CD58D040C557DF4F0C
:10262000A880B980CB58D040AE16BF0609F00FCFB6
:10263000F1C186E08F8BED968FADED970E94361538
:1026400069837A838B839C83EF968FADEF970E948B
:1026500036156C877D878E879F87C158DF4F8881AD
:102660009981CF57D0409CA38BA3CF57DF4F888150
:102670009981C158D0409EA38DA3CD57DF4F2881AB
:102680003981C358D040AAE0B0E00E941917AA27A8
:10269000BB278B8703966AE070E00E94BE168E8B84
:1026A000CB57DF4F88819981C558D0409E838D8359
:1026B000998B888B83E06F968FAF6F97ABC1C957AB
:1026C000DF4F488059806A807B80C758D040CE0158
:1026D000815A9F4F0E947E0787E08F8B21E046E062
:1026E000BE0165587F4FCE01815A9F4F0E94F40E64
:1026F000E82E22E047E0BE0165587F4FCE01815AA7
:102700009F4F0E94F40EF82E23E042E0BE01655870
:102710007F4FCE01815A9F4F0E94F40E282E24E055
:1027200043E0BE0165587F4FCE01815A9F4F0E9402
:10273000F40EC357DF4F8883CD58D04025E044E0E6
:10274000BE0165587F4FCE01815A9F4F0E94F40E03
:10275000082F26E045E0BE0165587F4FCE01815A23
:102760009F4F0E94F40E182F27E048E0BE016558E5
:102770007F4FCE01815A9F4F0E94F40EC157DF4F09
:102780008883CF58D04028E049E0BE0165587F4F8C
:10279000CE01815A9F4F0E94F40ECD56DF4F8883A1
:1027A000C359D04029E04CE0BE0165587F4FCE01AF
:1027B000815A9F4F0E94F40EC956DF4F8883C75934
:1027C000D0402AE048E1BE0165587F4FCE01815AD2
:1027D0009F4F0E94F40EC756DF4F8883C959D040DF
:1027E0002BE049E1BE0165587F4FCE01815A9F4FD2
:1027F0000E94F40EC656DF4F8883CA59D0402CE0A1
:102800004AE1BE0165587F4FCE01815A9F4F0E9419
:10281000F40ECE55DF4F8883C25AD040A0968FADBC
:10282000A097982F9170988F82FB992790F99A8F93
:10283000332019F08695817001C080E0898F80FF78
:102840003DC049825A826B827C82AD968FADAD9736
:102850006BE00E94B216892F90E0FC01E050FF4F20
:102860008080912CA12CB12CFC01E55FFE4FC08033
:10287000D12CE12CF12CC301B201A50194010E94DD
:10288000D21629013A019B01AC01C701B6010E9491
:10289000A216A50194010E94D21649015A01A30172
:1028A0009201C701B6010E94A216860E971EA81EAD
:1028B000B91E8C869D86AE86BF860EC08E2D0E9468
:1028C000361569837A838B839C838F2D0E943615FE
:1028D0006C877D878E879F872AE0822D622F0E94DA
:1028E000B2169B87C357DF4F8881CD58D0400E94D6
:1028F000B2169E8B81E091E0089FA001099F500DC8
:1029000011245E834D83189FA001199F500D11243F
:10291000598B488BC157DF4FB880CF58D040B89EF5
:10292000A001B99E500D112458874F83CD56DF4F1B
:10293000C880C359D040C89EA001C99E500D112423
:102940005B8B4A8BAA964FADAA9750E0405851092D
:1029500019864A87AB964FADAB9750E04058510966
:102960001C8A4D8BC956DF4FD880C759D0404D2D9A
:1029700050E060E070E0742F6627552744274B8FA6
:102980005C8F6D8F7E8FC756DF4FE880C959D0406E
:10299000E89EA001E99E500D11245CA34BA3C656EE
:1029A000DF4FF880CA59D040F89EA001F99E500D23
:1029B00011245EA34DA3CE55DF4F0881C25AD040EB
:1029C000089FA001099F500D11246B965FAF4EAF79
:1029D0006B97AE968FADAE97622F0E94B2166C9633
:1029E0009FAF6C97AF968FADAF970E94B2166D9662
:1029F0009FAF6D97E0968FADE0970E94B2166E96EE
:102A00009FAF6E97E1968FADE1970E94B2166F96D9
:102A10009FAF6F97CE0101960E94EA080E94680D51
:102A2000311081600E94B6070E946D06C755DF4FC6
:102A30000FB6F894DEBF0FBECDBFDF91CF911F91CF
:102A40000F91FF90EF90DF90CF90BF90AF909F904D
:102A50008F907F906F905F904F903F902F90089550
:102A6000E82FF0E0E656F74F8491089524E0829F26
:102A7000C0011124FC01E656FB4F659175918591CB
:102A80009491089524E0829FC0011124FC01E65630
:102A9000FF4F659175918591949108958F929F92C2
:102AA000AF92BF92CF92DF92EF92FF920F931F935C
:102AB000CF93DF93EC01DB016A01EE24FF24860152
:102AC0001A968C911A976AE00E94B216892E912C60
:102AD000F4013197E930F10520F4EC5BFF4F0C94E1
:102AE000131749015A018B2D0E94301521E031E066
:102AF000482F429FC001439F900D1124A7C096010B
:102B00003F77220F331FC901D7FC52C09FC0C601B7
:102B10004FC02D2D220F220B822F220F990B96C012
:102B200014968D919C9115978F3822E0920738F07A
:102B300081374DEF940728F080E79DEF02C08FE8C2
:102B400092E021E030E00817190710F020E030E0B3
:102B500088279927821B930B79C014962D913C915D
:102B60001597A0E0BCE30E941917AC015C5F9601C9
:102B70003F77D7FC0FC02417350708F065C0AFEFCB
:102B8000BFEF0E9419179A0140E050E00E94D21650
:102B9000C9015CC02417350708F053C0AFEFBFEF81
:102BA0000E9419179A0140E050E00E94D216C90114
:102BB000809590954BC0A7019601C701B6010E9470
:102BC000A21644C08E819F8141C01496ED91FC9164
:102BD0001597EF3FF10509F010F4E0E0F1E0BF01D7
:102BE00060957095AC81BD816017710710F0CD01C3
:102BF0002DC04D01A12CB12C2E813F81C901A0E037
:102C0000B0E09C01AD01281939094A095B09D601D8
:102C1000A61BB70B0E942F179F0140E050E00E94B7
:102C2000F416DA01C901880D991DAA1DBB1DB7FD57
:102C300008C0009721E0A207B10534F407C0C6011F
:102C400005C080E090E002C08FEF9FEFDF91CF9151
:102C50001F910F91FF90EF90DF90CF90BF90AF90BA
:102C60009F908F900895FA01A0E0B0E09C01AD0123
:102C7000305841095109DB010E942F17BB2797FDEE
:102C8000B095AB2F9058AF4FBF4FAF01FF0F660B02
:102C9000770B840F951FA61FB71FB7FD06C00097BF
:102CA00021E0A207B10524F4089580E090E00895A2
:102CB0008FEF9FEF08956370613059F008F441C0C1
:102CC000623061F4DC01A095B0959D010E94191756
:102CD00036C09C01DC010E941917089597FD16C0AB
:102CE000A0E0B0E0BC01CD01660F771F881F991FDF
:102CF0009B01AC010E94A216DC01CB0151E1B6950B
:102D0000A795979587955A95D1F70895DC01A095D9
:102D1000B095CD01A0E0B0E0BC01CD01660F771FFA
:102D2000881F991F9B01AC010E94A216DC01CB01F8
:102D300031E1B695A795979587953A95D1F7809506
:102D400090950895DB018F939F930E942F17BF9159
:102D5000AF91A29F800D911DA39F900DB29F900DEA
:102D600011240895991B79E004C0991F961708F063
:102D7000961B881F7A95C9F780950895AA1BBB1BDF
:102D800051E107C0AA1FBB1FA617B70710F0A61B6B
:102D9000B70B881F991F5A95A9F780959095BC018C
:102DA000CD010895A1E21A2EAA1BBB1BFD010DC087
:102DB000AA1FBB1FEE1FFF1FA217B307E407F507EB
:102DC00020F0A21BB30BE40BF50B661F771F881FC7
:102DD000991F1A9469F760957095809590959B015D
:102DE000AC01BD01CF010895052E97FB1EF40094A0
:102DF0000E940B1757FD07D00E94D21607FC03D084
:102E00004EF40C940B1750954095309521953F4FFB
:102E10004F4F5F4F089590958095709561957F4FC6
:102E20008F4F9F4F0895EE0FFF1F0590F491E02DF7
:102E30000994A29FB001B39FC001A39F700D811D93
:102E40001124911DB29F700D811D1124911D0895B3
:102E50000E941917B7FF0895821B930B08950E94D3
:102E60001917A59F900DB49F900DA49F800D911DE3
:102E700011240895689401C0E8948F929F92CF9393
:102E8000DF930E944817DF91CF919F908F90089514
:102E900088249924F401E401B0E49F93AA279A15A9
:102EA0008B049C04ED05FE05CF05D007A10798F41F
:102EB000AD2FDC2FCF2FFE2FE92D982C892E982FA8
:102EC000872F762F652F542F432F322F2227B8506C
:102ED00031F7BF9127C01B2EBF91BB27220F331F95
:102EE000441F551F661F771F881F991F881C991C38
:102EF000EE1FFF1FCC1FDD1FAA1FBB1F8A149B04E0
:102F0000EC05FD05CE05DF05A007B10748F08A18DE
:102F10009B08EC09FD09CE09DF09A00BB10B21606C
:102F20001A94E1F62EF49401AF01BE01CD01000C1C
:102F300008950F93083090F0982F872F762F652FE4
:102F4000542F432F322F22270850F4CF220F331F44
:102F5000441F551F661F771F881F991F0A95B2F7D8
:102F60000F910895DC01CB01FC01F999FECF06C059
:102F7000F2BDE1BDF89A319600B40D924150504037
:102F8000B8F70895DC01A40FB51F4150504048F038
:102F9000CB01840F951F2E910E94D31741505040B2
:102FA000D0F70895262FF999FECF92BD81BDF89AEA
:102FB000019700B4021639F01FBA20BD0FB6F8947D
:0C2FC000FA9AF99A0FBE0895F894FFCF1A
:102FCC0008040302030102010101010101010102D4
:062FDC00010302030408DA
:00000001FF
